S0230000435F41726475696E6F5F47656E65726973616E6A655F5A76756B612E7372656353
S11300000C9434000C9446000C9446000C94460066
S11300100C9446000C9446000C9446000C94460044
S11300200C9446000C9446000C9446000C94460034
S11300300C9446000C9446000C9446000C94460024
S11300400C9446000C9446000C9446000C94460014
S11300500C9446000C9446000C9446000C94460004
S11300600C9446000C94460011241FBECFEFD8E038
S1130070DEBFCDBF21E0A0E0B1E001C01D92A630FB
S1130080B207E1F70E944F010C940C040C94000099
S11300908F929F92AF92BF92CF92DF92EF92FF9294
S11300A04B015C0169017A018AB180628AB984B525
S11300B0836284BD85B58C6085BDC501B4010E9491
S11300C0B90267BD20E030E040E05FE3C501B40160
S11300D00E949F030E94B90268BD60910001709163
S11300E00101072E000C880B990B0E94EA029B0168
S11300F0AC0160E070E080E792E40E944702A7014F
S113010096010E949F0320E030E04AE754E40E94F5
S11301109F036B017C016093020170930301809340
S113012004019093050120E030E04AE755E40E9481
S11301309F034B015C0120E030E040E85FE30E9454
S11301404202882324F120E03FEF4FE757E4C50142
S1130150B4010E949A031816ACF420E030E040E2A7
S113016051E4C701B6010E949F030E94B90206C070
S113017080E991E00197F1F761507109611571050A
S1130180B9F70AC0C501B4010E94B90202C061E016
S113019070E0CB010197F1F78AB11AB880E49CE9C9
S11301A00197F1F7FF90EF90DF90CF90BF90AF9061
S11301B09F908F9008958F929F92AF92BF92CF920B
S11301C0DF92EF92FF926B017C018AB11AB86091C1
S11301D0000170910101072E000C880B990B0E94FD
S11301E0EA029B01AC0160E070E080E792E40E94C7
S11301F04702A70196010E949F0320E030E04AE7EE
S113020054E40E949F036B017C016093020170938C
S11302100301809304019093050120E030E04AE754
S113022055E40E949F034B015C0120E030E040E86C
S11302305FE30E944202882324F120E03FEF4FE76E
S113024057E4C501B4010E949A031816ACF420E0E7
S113025030E040E251E4C701B6010E949F030E94CE
S1130260B90206C080E991E00197F1F76150710984
S113027061157105B9F70AC0C501B4010E94B9023C
S113028002C061E070E0CB010197F1F7FF90EF90BD
S1130290DF90CF90BF90AF909F908F90089581E4AE
S11302A090E0909301018093000120E030E040E46D
S11302B05FE365E47BE98CE393E40E94480020E07B
S11302C030E040E45FE364E177EF81E393E40E948C
S11302D0480020E030E040E45FE364E570E78EE14D
S11302E093E40E94480020E030E040E45FE364E5EA
S11302F070E78EE193E40E94480020E030E040E49F
S11303005FE365E47BE98CE393E40E94480020E02A
S113031030E040E45FE364E177EF81E393E40E943B
S1130320480020E030E040E45FE364E570E78EE1FC
S113033093E40E94480020E030E040E45FE364E599
S113034070E78EE193E40E94480020E030E040E44E
S11303505FE365E47BE98CE393E40E94480020E0DA
S113036030E040E45FE364E177EF81E393E40E94EB
S1130370480020E030E040EA5FE364E570E78EE1A6
S113038093E40E94480020E030E040E45FE365E449
S11303907BE98CE393E40E94480020E030E040E4F1
S11303A05FE364E177EF81E393E40E94480020E097
S11303B030E040E45FE364E570E78EE193E40E949B
S11303C0480020E030E040E45FE364E570E78EE15C
S11303D093E40E94480020E030E040E45FE365E4F9
S11303E07BE98CE393E40E94480020E030E040E4A1
S11303F05FE364E177EF81E393E40E94480020E047
S113040030E040EA5FE364E570E78EE193E40E9444
S1130410480020E030E040E45FE364E570E78EE10B
S113042093E40E94480020E030E040E45FE364E5A8
S113043070E78EE193E40E94480020E030E040E45D
S11304405FE364E177EF81E393E40E94480020E0F6
S113045030E040E45FE364E177EF81E393E40E94FA
S1130460480020E030E040EA5FE365E47BE98CE3A8
S113047093E40E94480060E070E080E090E40E9411
S1130480DB000DCF0E94250308F481E008950E944B
S11304905B020C9460030E94590358F00E945203BB
S11304A040F029F45F3F29F00C94490351110C9456
S11304B094030C944F030E94710368F39923B1F3DE
S11304C0552391F3951B550BBB27AA276217730776
S11304D0840738F09F5F5F4F220F331F441FAA1F0A
S11304E0A9F335D00E2E3AF0E0E832D091505040C6
S11304F0E695001CCAF72BD0FE2F29D0660F771F74
S1130500881FBB1F261737074807AB07B0E809F059
S1130510BB0B802DBF01FF2793585F4F3AF09E3FDE
S1130520510578F00C9449030C9494035F3FE4F371
S1130530983ED4F3869577956795B795F7959F5F21
S1130540C9F7880F911D9695879597F90895E1E06D
S1130550660F771F881FBB1F621773078407BA07CC
S113056020F0621B730B840BBA0BEE1F88F7E09527
S113057008950E94790388F09F5798F0B92F99271E
S1130580B751B0F0E1F0660F771F881F991F1AF07A
S1130590BA95C9F714C0B13091F00E949303B1E049
S11305A008950C949303672F782F8827B85F39F048
S11305B0B93FCCF3869577956795B395D9F73EF413
S11305C090958095709561957F4F8F4F9F4F0895BB
S11305D0E89409C097FB3EF49095809570956195D9
S11305E07F4F8F4F9F4F9923A9F0F92F96E9BB278F
S11305F09395F695879577956795B795F111F8CF0B
S1130600FAF4BB0F11F460FF1BC06F5F7F4F8F4F75
S11306109F4F16C0882311F096E911C0772321F06B
S11306209EE8872F762F05C0662371F096E8862F03
S113063070E060E02AF09A95660F771F881FDAF75A
S1130640880F9695879597F90895990F0008550F87
S1130650AA0BE0E8FEEF16161706E807F907C0F044
S113066012161306E407F50798F0621B730B840B4C
S1130670950B39F40A2661F0232B242B252B21F426
S113068008950A2609F4A140A6958FEF811D811DC6
S1130690089597F99F6780E870E060E008959FEF00
S11306A080EC089500240A94161617061806090605
S11306B0089500240A9412161306140605060895D4
S11306C0092E0394000C11F4882352F0BB0F40F45C
S11306D0BF2B11F460FF04C06F5F7F4F8F4F9F4F9C
S11306E0089557FD9058440F551F59F05F3F71F01E
S11306F04795880F97FB991F61F09F3F79F0879585
S11307000895121613061406551FF2CF4695F1DF0D
S113071008C0161617061806991FF1CF869571059D
S1130720610508940895E894BB2766277727CB01D1
S113073097F908950E94250308F48FEF08950E9405
S1130740B2030C9460030E94520338F00E945903D0
S113075020F0952311F00C9449030C944F031124B9
S11307600C9494030E94710370F3959FC1F3950F49
S113077050E0551F629FF001729FBB27F00DB11D21
S1130780639FAA27F00DB11DAA1F649F6627B00DB1
S1130790A11D661F829F2227B00DA11D621F739F9A
S11307A0B00DA11D621F839FA00D611D221F749FA8
S11307B03327A00D611D231F849F600D211D822FEF
S11307C0762F6A2F11249F5750409AF0F1F0882316
S11307D04AF0EE0FFF1FBB1F661F771F881F915043
S11307E05040A9F79E3F510580F00C9449030C94A6
S11307F094035F3FE4F3983ED4F386957795679529
S1130800B795F795E7959F5FC1F7FE2B880F911D6C
S10F08109695879597F90895F894FFCF0A
S9030000FC
