:100000000C9434000C9451000C9451000C94510049
:100010000C9451000C9451000C9451000C9451001C
:100020000C9451000C9451000C9451000C9451000C
:100030000C9451000C9451000C9451000C945100FC
:100040000C9451000C9451000C9451000C945100EC
:100050000C9451000C9451000C9451000C945100DC
:100060000C9451000C94510011241FBECFEFD8E026
:10007000DEBFCDBF11E0A0E0B1E0EEEAF5E002C0E6
:1000800005900D92A230B107D9F721E0A2E0B1E0CE
:1000900001C01D92A830B207E1F70E94E6000C945F
:1000A000D5020C9400008F929F92AF92BF92CF9294
:1000B000DF92EF92FF924B015C0169017A018AB1F4
:1000C00080628AB984B5836284BD85B58C6085BD44
:1000D000C501B4010E94820167BD20E030E040E02C
:1000E0005FE3C501B4010E9468020E94820168BDFD
:1000F0006091000170910101072E000C880B990B93
:100100000E94B3019B01AC0160E070E080E792E4E3
:100110000E941001A70196010E94680220E030E0D1
:100120004AE754E40E9468026B017C01609302017B
:1001300070930301809304019093050120E030E067
:100140004AE755E40E9468024B015C0120E030E080
:1001500040E85FE30E940B01882324F120E03FEF99
:100160004FE757E4C501B4010E9463021816ACF4CE
:1001700020E030E040E251E4C701B6010E9468028D
:100180000E94820106C080E991E00197F1F7615079
:10019000710961157105B9F70AC0C501B4010E9462
:1001A000820102C061E070E0CB010197F1F78AB1F2
:1001B0001AB880E49CE90197F1F7FF90EF90DF9087
:1001C000CF90BF90AF909F908F90089588E092E07D
:1001D000909307018093060115C0072E000C880B31
:1001E000990B0E94B30120E030E040E85EE30E94FA
:1001F00053008091060190910701019690930701A9
:10020000809306016091060170910701611583E0FA
:1002100078071CF3DBCF0E94EE0108F481E008951B
:100220000E9424010C9429020E94220258F00E948C
:100230001B0240F029F45F3F29F00C941202511187
:100240000C945D020C9418020E943A0268F3992300
:10025000B1F3552391F3951B550BBB27AA276217C2
:100260007307840738F09F5F5F4F220F331F441FCF
:10027000AA1FA9F335D00E2E3AF0E0E832D0915003
:100280005040E695001CCAF72BD0FE2F29D0660FF0
:10029000771F881FBB1F261737074807AB07B0E833
:1002A00009F0BB0B802DBF01FF2793585F4F3AF039
:1002B0009E3F510578F00C9412020C945D025F3F52
:1002C000E4F3983ED4F3869577956795B795F795BF
:1002D0009F5FC9F7880F911D9695879597F90895A7
:1002E000E1E0660F771F881FBB1F62177307840743
:1002F000BA0720F0621B730B840BBA0BEE1F88F752
:10030000E09508950E94420288F09F5798F0B92F17
:100310009927B751B0F0E1F0660F771F881F991F3A
:100320001AF0BA95C9F714C0B13091F00E945C027E
:10033000B1E008950C945C02672F782F8827B85F8E
:1003400039F0B93FCCF3869577956795B395D9F792
:100350003EF490958095709561957F4F8F4F9F4F9C
:100360000895E89409C097FB3EF4909580957095A8
:1003700061957F4F8F4F9F4F9923A9F0F92F96E9F1
:10038000BB279395F695879577956795B795F11166
:10039000F8CFFAF4BB0F11F460FF1BC06F5F7F4F03
:1003A0008F4F9F4F16C0882311F096E911C0772315
:1003B00021F09EE8872F762F05C0662371F096E81E
:1003C000862F70E060E02AF09A95660F771F881FED
:1003D000DAF7880F9695879597F90895990F000891
:1003E000550FAA0BE0E8FEEF16161706E807F90707
:1003F000C0F012161306E407F50798F0621B730BA2
:10040000840B950B39F40A2661F0232B242B252B22
:1004100021F408950A2609F4A140A6958FEF811DC5
:10042000811D089597F99F6780E870E060E0089566
:100430009FEF80EC089500240A94161617061806FC
:100440000906089500240A941216130614060506D8
:100450000895092E0394000C11F4882352F0BB0F69
:1004600040F4BF2B11F460FF04C06F5F7F4F8F4FCC
:100470009F4F089557FD9058440F551F59F05F3F07
:1004800071F04795880F97FB991F61F09F3F79F0B6
:1004900087950895121613061406551FF2CF469538
:1004A000F1DF08C0161617061806991FF1CF8695BA
:1004B0007105610508940895E894BB27662777279E
:1004C000CB0197F908950E94EE0108F48FEF08958B
:1004D0000E947B020C9429020E941B0238F00E94A9
:1004E000220220F0952311F00C9412020C941802B1
:1004F00011240C945D020E943A0270F3959FC1F39F
:10050000950F50E0551F629FF001729FBB27F00DC1
:10051000B11D639FAA27F00DB11DAA1F649F662716
:10052000B00DA11D661F829F2227B00DA11D621F65
:10053000739FB00DA11D621F839FA00D611D221F1F
:10054000749F3327A00D611D231F849F600D211D03
:10055000822F762F6A2F11249F5750409AF0F1F086
:1005600088234AF0EE0FFF1FBB1F661F771F881FEF
:1005700091505040A9F79E3F510580F00C94120213
:100580000C945D025F3FE4F3983ED4F38695779533
:100590006795B795F795E7959F5FC1F7FE2B880F95
:0E05A000911D9695879597F90895F894FFCFD1
:0205AE0040010A
:00000001FF
